:100000000C940F020C942C020C942C020C944D1B9B
:100010000C942C020C942C020C942C020C942C02A8
:100020000C942C020C942C020C9498220C946C23AB
:100030000C94731D0C942C020C942C020C942C0226
:100040000C942C020C942C020C942C020C942C0278
:100050000C942C020C94161E0C942C020C942C0262
:100060000C942C020C942C020C942C020C942C0258
:100070000C942C020C942C020C942C020C942C0248
:100080000C942C020C942C020C942C020C942C0238
:100090000C942C020C942C020C942C020C942C0228
:1000A0000C942C020C942C020C942C0214001A00B8
:1000B00008001500170004621600070009000A0076
:1000C0001D681B6106641900050002502A0000002B
:1000D000000000001C0018000C00120013000B00B0
:1000E0000D000E000F0033621100100036643761FE
:1000F00003502C44015000000000000020021E02AA
:100100002102220254000000340031003402250292
:10011000000035022D021F02230200502A000000B9
:1001200000000000640026022702310238022E027D
:100130002F0230023602370256002F0030006700CF
:1001400024022C0002500000000000001E001F00CE
:10015000200021002200000000000000000000003C
:100160000000000000000000000001002A00000064
:1001700000000000230024002500260027000000C6
:10018000000000000000000000000000000000006F
:1001900000002C0001000000000000000000000032
:1001A000000000000000000000000000000000004F
:1001B00000000000000000000000005000000000EF
:1001C000000000000000F100F900F2000000000053
:1001D000EF00EE00ED00F0000000FB00FA00FC0074
:1001E000010000000000000000000000000000000E
:1001F00000002900000000000000000028000000AE
:100200000000000000003900000000402B0000004A
:1002100000000000000000000000000000000000DE
:1002200000000000000000000000000000000000CE
:1002300000000000000000000000000000000000BE
:10024000000000002A2B2800000000000000000031
:100250000000000000000029000000002C1E3420D7
:10026000212224342627252E362D3738271E1F20FD
:100270002122232425263333362E37381F04050642
:100280000708090A0B0C0D0E0F1011121314151686
:100290001718191A1B1C1D2F3130232D3504050684
:1002A0000708090A0B0C0D0E0F1011121314151666
:1002B0001718191A1B1C1D2F3130354C0000000077
:1002C000000000000000000000000000000000002E
:1002D000000000000000000000000000000000001E
:1002E0007E0F00D4FFFFFFC7000000781A0346000E
:1002F00065007200720069007300200073007700CF
:1003000065006500700000000803440050004200D2
:1003100000000403090409023B00020100A0FA09DD
:100320000400000103010100092111010001224024
:100330000007058103080001090401000103000012
:1003400000092111010001227B0007058203200022
:10035000011201000200000008ABC239390100019E
:1003600002000105010902A10185020901A10005A0
:100370000919012908150025019508750181020553
:1003800001093009311581257F950275088106091B
:10039000381581257F950175088106050C0A3802FC
:1003A0001581257F950175088106C0C0050109806A
:1003B000A101850319012AB700150126B70095018F
:1003C00075108100C0050C0901A101850419012ADD
:1003D000A002150126A002950175108100C005013B
:1003E0000906A101050719E029E71500250195086F
:1003F000750181029501750881010507190029FF22
:10040000150026FF009506750881000508190129C9
:1004100005950575019102950175039101C011249F
:100420001FBECFEFDAE0DEBFCDBF11E0A0E0B1E04C
:10043000E4EFFBE402C005900D92AC3BB107D9F7A5
:1004400022E0ACEBB1E001C01D92A33BB207E1F7A3
:100450000E9427140C94E2250C9400009C013A950C
:1004600021153F4150F5FC01EE27F170BC016627D4
:100470007270AC01442754709C012227387094FF9D
:100480000EC080E1EF2B09F480E0672B09F0806259
:10049000452B09F08064232B89F08068089581E062
:1004A000EF2B09F480E0672B09F08260452B09F0FF
:1004B0008460232B19F08860089580E00895CF931D
:1004C000DF93EB010E942E02FE010995DF91CF918F
:1004D0000895CF93DF93EC01805E9109089720F097
:1004E00062EE76E0209711F46AE974E0CE010E9492
:1004F0005F028C2F0E94FB03DF91CF910895CF9371
:10050000DF93EC010E944704CE01805E91090897B9
:1005100020F069EE76E0209711F461EA74E0CE01F4
:100520000E945F02DF91CF9108950F931F93CF93A5
:10053000DF938C01EB010E946902209741F4C8010E
:100540000E947F02DF91CF911F910F9108958FE953
:100550009FE00197F1F700C000002197EECF70E017
:1005600060E08933910511F460E570E00E94950226
:10057000089581E0089581E008950E94BB020895E6
:1005800008950E94C0020895A5E0B0E0EAECF2E010
:100590000C944E2549835A833091C30189819A81F5
:1005A000311119C0662399F0222389F00E945F0857
:1005B000182F682F89819A810E943B0869817A816E
:1005C000812F0E94E90E2596E3E00C946A250E9493
:1005D0004D08182FF3CF0E945F0869817A81F1CF0F
:1005E000FC01262F408151816281738184810E94A8
:1005F000C402089581E00895CF93DF93EC0160E099
:100600000E94F002BE010E94C102DF91CF910895C5
:100610000E94761008950E947A10089508950E940D
:1006200006070E940E032FEF84E39CE021508040D8
:100630009040E1F700C0000008950E940F030E945F
:100640003A1E08950E940F030E944B1E08950F93B7
:100650001F93CF93DF938C0161E00E94F002EC01C5
:10066000B8010E94BD02811106C080E0DF91CF91E8
:100670001F910F910895B801CE010E94BC178823E5
:10068000A1F3B801CE010E945B1A882371F3B8016F
:10069000CE010E94F717882341F3B801CE010E94D2
:1006A000CD19882311F3F8018281882361F0CB35BD
:1006B000FDE5DF0701F158F4C115ECE5DE0791F027
:1006C000CF3DDC4591F0C8010E94B902CFCFCD35B6
:1006D0008DE5D80769F090F0C83ADD45A1F70E9492
:1006E0002203C3CF0E941D03C0CF0E941C0DF7CF71
:1006F0000E945A0CE8CF0E94640CE5CF0E94680C5F
:10070000E2CF0E94501D0E949E0308950E94A20302
:100710000E94551D089508950E948B03089581E05D
:1007200008950E948F0308950895CF93C82F0E94C3
:100730008C038C2F0E949103CF91089580E00E943A
:10074000950308950E94731C0E9495030895CF930A
:100750000E94731CC82F8091BE018C1779F0C09342
:10076000BE010E94DF1D6093BF017093C0018093A2
:10077000C1019093C2018C2F0E949503CF910895DF
:10078000ABE0B0E0E6ECF3E00C944F254F835887E4
:1007900069877A878B8761110E94A50B1E821D8253
:1007A00085E0FE013796DE01119601900D928A9543
:1007B000E1F78C819D81892B61F449815A816B819C
:1007C0007C818D819E810E94CB0A2B96E2E00C9465
:1007D0006B2589819A8189238F3F79F3CE01019618
:1007E0000E94FA028111E9CFF0CFFC018081918152
:1007F0000E9491080895CF93C82F8823B9F08CEFF9
:100800008C0F813AA8F46C2F809100019091010126
:100810000E94E11C882329F08C2F0E94620B0E9409
:10082000C60B8C2F0E945A0B0E94C60BCF910895C5
:1008300080E28C0F883048F4C77081E001C0880FD7
:10084000CA95EAF70E94850BEFCFEBE5EC0FE3309A
:1008500040F4F0E0EA57FE4F808190E00E94A31C34
:10086000E5CFE8E5EC0FE73150F4F0E0EE0FFF1FC5
:10087000E85AFE4F808191810E94B91CD7CFCD3EAE
:10088000A8F28C2F0E94AB140E947E15CFCF882334
:1008900079F19CEF980F913A28F40E94620B0E9424
:1008A000C60B089590E2980F983050F4877091E04D
:1008B00001C0990F8A95EAF7892F0E948B0BEFCF21
:1008C0009BE5980F933028F490E080E00E94A31CF1
:1008D000089598E5980F973128F490E080E00E9401
:1008E000B91C08958D3E20F00E9405150E947E15CA
:1008F00008951F93CF93DF93182FEB010E94FB0302
:10090000209739F4812F0E944704DF91CF911F91E6
:1009100008958FE99FE00197F1F700C0000021974B
:10092000EFCF70E060E0893311F460E570E00E9481
:1009300079040895882321F00E94850B0E94C60B3C
:100940000895882321F00E948B0B0E94C60B089506
:10095000B0E0A0E0EEEAF4E00C9448256C01D62F5C
:10096000C72FFC011281F580F2949FE0F9220E94CA
:100970007B0BE82E8823B9F0E12E1123A1F08C2FF8
:10098000807F803421F080E28D0F8830D0F080911C
:10099000880282FF16C082E00E94290C0E947B0B15
:1009A00091E0E82EE926BC2EB2948FE0B822FBE05D
:1009B000FB1508F468C0EB2DF0E0EC51FA4D0C94F7
:1009C0003925E12CF0CF0C2F0F70C07F11F002956C
:1009D000007F112399F0002359F080E28D0F8830B9
:1009E00010F0D11107C0802F0E94850B0E94C60B0A
:1009F0008D2F41C0802F0E94980BF8CF8D2F0E9421
:100A00004704002309F43FC080E28D0F883010F0C6
:100A1000D11104C0802F0E948B0B03C0802F0E9435
:100A20009E0B0E94C60B2FC00C2F0F70C07FC032D0
:100A300011F00295007FDD2381F0D13009F463C00D
:100A4000112309F46DC0FF2009F463C0F60185810C
:100A500080FFCECF8F7085835CC08091880282FD3D
:100A600033C0112359F0002329F0802F0E94850BF9
:100A70000E94C60B80E00E94FB0305C080E00E943C
:100A800047040111C7CFEB2DE850FF0B349720F43A
:100A90000E94731C0E949503EE2089F00E94770B40
:100AA00080FD0DC0F60112820E94710B0E94990711
:100AB000C6010E94B8060E94710B0E94A907CDB71B
:100AC000DEB7E9E00C946425112389F0F11006C02B
:100AD0000E94A80B802B0E949A04D5CF21E0F2122D
:100AE000F7CF0E94A80B802B0E94AF0BCCCFF11048
:100AF00006C00E94BC0B802F0E94A104C4CF31E02D
:100B0000F31609F2F6CF112331F085E08F1508F4C2
:100B1000BACF802FE0CF94E09F1508F4B4CFEBCF8D
:100B2000FF2049F3D93349F4FFEF27EE33E0F150CA
:100B300020403040E1F700C000008D2F0E944704A4
:100B4000A2CF8C2F86958695837069F0813009F04D
:100B50009ACF8D2F9C2F9370111102C090E080E0EE
:100B60000E94B91C90CF8D2F9C2F9370111102C041
:100B700090E080E00E94A31C86CF8D2F112329F0E6
:100B80000E94AB140E947E157ECF0E940515FACFFD
:100B90008C2F8370A1F5111176CF4D2F429546957C
:100BA0004770440F440F2D2F2F7030E0042E02C0E9
:100BB000220F331F0A94E2F790E080E0D4FF09C0CF
:100BC0008FE090E002C0880F991F4A95E2F7809568
:100BD0009095C695C695C370822B932BC23049F071
:100BE00058F4C13019F00E9467074DCF0E945E078C
:100BF0004ACF0E94700747CF0E945B0744CF86957B
:100C0000112311F08C2F8170882309F43CCF4D2FD4
:100C1000429546954770440F440F2D2F2F7030E0BA
:100C2000042E02C0220F331F0A94E2F790E080E006
:100C3000D4FF09C08FE090E002C0880F991F4A9549
:100C4000E2F780959095C695C695C370822B932B3D
:100C5000C23049F058F4C13019F00E94D40713CFC4
:100C60000E94CB0710CF0E94DD070DCF0E947F07A7
:100C70000ACFCF70112329F08C2F0E9499078D2F56
:100C80002ACF8D2F0E94A1048C2F0E94A907FBCE92
:100C9000D23F51F160F4D03FB9F0D13F81F0112340
:100CA00009F449C0F110A4CE8C2F8F7121C0D33F1D
:100CB00011F1D43FA1F78091880282FD26C08C2FCC
:100CC0008F71112311F314C0112349F084E08F15A3
:100CD00008F4D9CE8C2F8F710E94BB07D4CE95E03B
:100CE0009F1508F4D0CEF6CF8C2F8F711111CDCF78
:100CF0000E949907C8CE112329F08C2F8F710E9472
:100D00008D07C1CE0E948807BECE112349F0CF7156
:100D10008C2F0E94990763E08C2F0E940B0CB3CE9E
:100D200081E00E94290CE1E0EF1508F0ACCE82E0F2
:100D30000E94290CA8CEF110F5CE8C2F8F71A5CF73
:100D40000F931F93CF93DF93EC01688179818A81A0
:100D50000E949C088C010E94E6070E945A07B80175
:100D6000CE010E94A804DF91CF911F910F910895A9
:100D7000CF93DF93EC018B819C81892B29F08881B3
:100D8000998189238F3F51F4DF91CF910895CE014E
:100D90000E94A006CE010E94FC02F6CFCE010E9466
:100DA00027038111F4CF0E947B0B882369F38A818A
:100DB000882351F38091880282FFE6CF82E00E946F
:100DC000290CE2CF882321F00E94980B0E94C60BC9
:100DD0000895882321F00E949E0B0E94C60B08955F
:100DE00090E080E00E94A31C90E080E00E94B91C8B
:100DF0000E94A50B0E94C60B0E949A150E947E15A8
:100E000008950E946A0B0E94F00608950E94950BB7
:100E10000E940107089592959F70963091F058F4C2
:100E2000925F9F70923058F4803F19F030F4883E02
:100E300030F481E008959A5FF4CF843FD1F380E0ED
:100E40000895883EB0F3813FD1F7F3CFFC01838151
:100E50009481892B29F08081918189238F3F11F41E
:100E600080E00895808191810E9491080E940B0783
:100E70000895A5E0B0E0EFE3F7E00C944F25259648
:100E8000E2E00C946B25A6E0B0E0E9E4F7E00C9416
:100E90004F252696E2E00C946B2508950E944D079D
:100EA00008950E944E079093DB018093DA010E941F
:100EB000F006089508950E94510708952091DA01DF
:100EC0003091DB01822B932B0E94510708952091D2
:100ED000DA013091DB01822393230E9451070895A8
:100EE0002091DA013091DB01822793270E9451077C
:100EF00008950E944D0708950E94790708950E9461
:100F00007C079093D9018093D8010E94F006089540
:100F100090E080E00E947F07089521E030E0A90181
:100F200002C0440F551F8A95E2F7CA010E947F074D
:100F3000089521E030E002C0220F331F8A95E2F7C6
:100F40008091D8019091D901822B932B0E947F0729
:100F5000089521E030E002C0220F331F8A95E2F7A6
:100F6000209530958091D8019091D90182239323C7
:100F70000E947F07089521E030E002C0220F331F56
:100F80008A95E2F78091D8019091D9018227932721
:100F90000E947F0708952091D8013091D901822BBA
:100FA000932B0E947F0708952091D8013091D90199
:100FB000822393230E947F0708952091D8013091C6
:100FC000D901822793270E947F0708950895262F2D
:100FD000277091E001C0990F2A95EAF723E07695F2
:100FE00067952A95E1F7660F771F660F771FFA015D
:100FF000E60FF71F50E040E0682F70E08191DF01BD
:1010000011979B01042E02C0369527950A94E2F7AA
:10101000217021952827292328272C934F5F5F4F84
:101020004430510559F70895A82FA77023E09695ED
:1010300087952A95E1F7880F991F880F991FFB0163
:10104000E80FF91F50E040E080E0219130E00A2EE7
:1010500002C0369527950A94E2F721703327042EB3
:1010600001C0220F0A94EAF7822B4F5F5F4F443092
:10107000510559F70895262F983070F4853060F4A3
:10108000682F70E085E0989F600D711D112444EC7D
:1010900051E0822F0E94E7070895292F983068F4C5
:1010A000853058F490E064EC71E035E0239F800DCA
:1010B000911D11240E941408089580E00895B0E065
:1010C000A0E0E5E6F8E00C9448257C010091D80109
:1010D0001091D9018091DA019091DB01082B192B35
:1010E000CFE0D0E0CC24C394D12CBC2EC6010C2E72
:1010F00002C0880F991F0A94E2F780239123892B5D
:1011000049F4219790F7B12C8B2DCDB7DEB7E9E0EC
:101110000C946425B7018C2F0E94040F019789F36A
:10112000F3CFCF93DF93EC010E945F08BE010E94D2
:10113000040FDF91CF9108951F93CF93DF93EB01BD
:101140009091C301992339F0CB010E949108DF915E
:10115000CF911F910895882369F0CB010E945F0809
:10116000182F682FCE010E943B08BE01812F0E94DC
:10117000040FEDCFCB010E944D08182FF6CF1F931F
:10118000CF93DF93C091DC0116E08091DD018C13D9
:1011900004C0DF91CF911F910895D0E01C9FF00112
:1011A0001D9FF00D1124E252FE4F4081518162815A
:1011B0007381848195810E9443072196C770E5CF92
:1011C00040910E0250910F02609110027091110235
:1011D00080911202909113020E94430708951F9379
:1011E000CF93DF9380911302807F09F049C08091F3
:1011F0001002882309F444C08091DC01C091DD0114
:1012000060910E0270910F02A0911102B091120232
:10121000D62FD72316E0C81799F190E0109711F058
:10122000DF3F19F401968770F6CF189F9001199F40
:10123000300D1124F901E252FE4F41814713F2CFE4
:1012400040814613EFCF42814111ECCF438154815D
:101250004A1B5B0B483C510528F7809113028F70A5
:10126000806180931302F901ED51FE4F80818F70F0
:10127000806180838EE092E00E94B8060E94BF08E1
:10128000DF91CF911F910895A1E1B0E0EAE4F9E088
:101290000C9447258C0185E0F801DE011D96019034
:1012A0000D928A95E1F7F801E2808EE0C82E82E087
:1012B000D82E60911102709112026115710509F426
:1012C0004EC190910E0220910F02892F82238F3FF1
:1012D00009F445C140815181A380B480F09010028F
:1012E000F501E61BF70BFF2009F4EAC08091130219
:1012F000382F307FE83CF10508F0A3C031116DC0F4
:10130000FE2C251316C0941314C0E11012C08F7068
:101310008061809313020E94E008C6010E94B80613
:1013200080911302F80185838F2D6196EAE00C9479
:101330006325A114B10429F0842F85238F3F09F080
:1013400027C180E0F82FF170DF2E80FF3CC0809134
:10135000DC012091DD0136E0821315C04D875E87E8
:101360008D859E850E949108292F22952F7022300D
:10137000F0F0243018F59F70F1F0F8019581907F1E
:10138000D1F4D12C1EC090E0389FF001399FF00DB0
:101390001124E252FE4F6181651306C0608164131F
:1013A00003C06281E6120FC001968770D5CF9F708F
:1013B00011F0882331F3805E883018F3C8010E9451
:1013C000B806FD2CB1CFEE2009F4AECF8091130208
:1013D000816080931302F12CA7CF251306C09413CC
:1013E00004C0F801EE2009F487C0C8010E94260756
:1013F000882319F1EE2009F180911302803270F0F8
:1014000020910E0230910F0238872F831986BB86F8
:10141000AA868C87CE0107960E94B80686E0F8015E
:10142000AEE0B2E001900D928A95E1F70E94EF08DC
:101430000E94E008FF24F39477CFC8010E94B80609
:10144000F9CF311113C07A2DB98AA88A6E2D8989F6
:101450000E9439078EE092E00E94B80686E0F6010D
:1014600011928A95E9F70E94E008B5CF25130FC0C5
:1014700094130DC0E1100BC0F8018583C8010E94D0
:10148000B80686E0F60111928A95E9F74DCFC801BA
:101490000E942607882389F2EE2079F280911302B8
:1014A000803208F4BBCF20910E0230910F023A83B4
:1014B00029831B82BD82AC828E83CE010196ACCF84
:1014C000E83CF10508F03EC0FE2CEE2009F4B5CF53
:1014D00025132AC0941328C08091130280FD1BC0DD
:1014E000982F907FC1F0F8018583903F31F0982FBD
:1014F000907F905F8F70892B8583C8010E94B8060A
:1015000086E0F801AEE0B2E001900D928A95E1F735
:101510000E94E00809CF86E0F801AEE0B2E0019059
:101520000D928A95E1F700CFC8010E94260781112C
:1015300075CF80911302816080931302C8010E94CD
:10154000B806F2CE7A2DB98AA88A6E2D89890E94B2
:10155000390786E0F60111928A95E9F7D9CFEE2096
:1015600009F46BCFC8010E942607F82E882309F4DE
:1015700064CF86E0F801AEE0B2E001900D928A956A
:10158000E1F78EE092E00E94F5030E94EF08C0CFE1
:1015900081E08E25D7CEACE0B0E0E1EDFAE00C942E
:1015A0004E254F83588769877A878B879C87CE0122
:1015B00007960E944409882369F08A859B85892BB8
:1015C00039F04F815885842F85238F3F09F06BC0F8
:1015D00016E05FC086E0FE013796DE0111960190AD
:1015E0000D928A95E1F78A859B85892B89F38885F9
:1015F0009F8189238F3F61F32091DD0130E0C90194
:101600000196877099274091DC014817190671F4FB
:101610000E9406071092DD011092DC0186E0EEE0E8
:10162000F2E0DF011D928A95E9F7D2CF96E0929F12
:10163000D001939FB00D1124A252BE4FFE013196EE
:1016400001900D929A95E1F78093DD010E94BF0809
:10165000BFCF819FC001112482529E4F0E94440936
:101660008823E9F0E091DC011E9FF0011124E25291
:10167000FE4F4081518162817381848195810E94F6
:1016800043078091DC0190E0019687709927809351
:10169000DC018091DC019091DD018913DACF2C9679
:1016A000E3E00C946A2569857A858B859C850E9488
:1016B00043078ECF682F80910001909101010E9415
:1016C000171D0895682F80910001909101010E94DB
:1016D0001A1D089580910001909101010E941D1D25
:1016E000089580911C028595859585950895809132
:1016F0001C028770089590911C02977081E009F494
:1017000080E0089580912702089590912702892B07
:1017100080932702089580959091270298239093B3
:1017200027020895809327020895109227020895B2
:1017300090912602892B809326020895809590919E
:101740002602982390932602089510922602089567
:1017500080911D02089508950E94AB0B0895909109
:10176000880292FF08C090911D02981721F0809383
:101770001D020E94AC0B089580911D02882329F060
:1017800010921D0280E00E94AC0B0895CF93DF936E
:10179000E0910001F0910101809127028083E091A6
:1017A0000001F0910101808190912602892B8083B4
:1017B00090911D02992381F0E0910001F0910101C7
:1017C0008081892B808380910001909101010E948A
:1017D000CF1C81110E94BC0BC0910001D09101016E
:1017E00048E050E064E172E0CE010E948A25892B36
:1017F00059F088E0FE01A4E1B2E001900D928A95D3
:10180000E1F7CE010E948A1CDF91CF9108950895DF
:101810000E94070C08959091880292FF11C098E0F1
:10182000899F90011124622B60931C020E949907EA
:1018300080911C028595859585950E94080C0895D8
:101840000E949907089510921C0280E00E94080CE3
:10185000089590911C028095892380931C02282F63
:10186000277091F4282F082E000C330B92171306C3
:1018700059F09091880292FF07C0859585958595CE
:101880000E94A9070E94230C08959091880292FB60
:10189000222720F9281769F080FB92F9909388029B
:1018A00080918702909188020E94960C82E00E94AB
:1018B000290C08958091880282FB882780F991E0A5
:1018C00089270E94450C089581E00E94450C0895E7
:1018D00080E00E94450C08956FEF7FEF90E080E07C
:1018E0000E94CC25089590E080E00E94A82521E088
:1018F000883E9E4F09F020E0822F089582E090E01C
:101900000E94A025089583E090E00E94A0250895FC
:10191000CF9384E090E00E94A025C82F82E290E05F
:101920000E94A025982F8C2FCF910895CF93C92F77
:10193000682F84E090E00E94AE256C2F82E290E058
:101940000E94AE25CF910895AB01BC018FE090E0DD
:101950000E94C0250895AB01BC0183E190E00E9484
:10196000C025089560E070E0CB010E94AB0C0895A3
:1019700060E070E0CB010E94A40C0E94B20C0895BC
:1019800068EE7EEF90E080E00E94CC2560E082E08F
:1019900090E00E94AE2560E083E090E00E94AE25DA
:1019A0001092DB011092DA0160E084E090E00E9486
:1019B000AE2564E082E290E00E94AE2560E085E022
:1019C00090E00E94AE2560E086E090E00E94AE25A7
:1019D0006FEF87E090E00E94AE2540E050E0BA0152
:1019E00088E090E00E94C02560E08DE090E00E94D9
:1019F000AE2540E050E0BA0188E190E00E94C025A9
:101A000060E087E190E00E94AE2540E050E0BA013E
:101A10008CE190E00E94C02570E060E080E290E000
:101A20000E94CC2540E050E0BA0188E190E00E949D
:101A3000C0250E94B80C08950E94C00C08958EE045
:101A400090E00E94A02591E0811101C090E0892FD3
:101A50000895682F8EE090E00E94AE2508950E94C0
:101A6000DF1D6093360270933702809338029093A3
:101A70003902609332027093330280933402909360
:101A800035020895089508950E94430D089508951C
:101A90000E94470D08958EE290E10E94691C0E9409
:101AA000420D0E94440D08950E9418120895089551
:101AB00008950E94570D0E94580D08950E945710D6
:101AC0000E9494030E94FA1608950E94CA1D0E9463
:101AD000EE0F0E9430120E9445110E945E0D0E947E
:101AE000B8160E9440120E94480D0895AAE0B0E086
:101AF000ECE7FDE00C9447250E9499118AE2A82E9C
:101B000082E0B82E750110E0F70101917F01812F6D
:101B10000E947D101F5F183009F440C00817A1F320
:101B200080913A0281FD0E9483100E94540DC82EBC
:101B300010E0812F0E947D10082FF50181915F0137
:101B4000081731F1F12CEE24E394D02ED8268D2DF8
:101B50008E21B1F0CC20A1F0FE821F8391E0802F76
:101B60008E2109F490E098870E94D31D8160782F20
:101B70009A8789874E815F8168858A850E94C00324
:101B8000F394EE0CF5E0FF12E2CFF50131970083FC
:101B90001F5F183071F60E942F0D20C00813C0CFB0
:101BA0000E94D31D8C018091280290912902081770
:101BB0001907A1F08FEF89838A831B820E94D31DAE
:101BC0008160782F9D838C8349815A816B818D81BF
:101BD0000E94C00310932902009328020E94181249
:101BE0000E94BC150E94A7032A96EAE00C94632584
:101BF000CF93DF930E94090FEC01811521E5920735
:101C000008F042C0811530E5930708F09FC0883E78
:101C1000910530F5803E910508F094C0883A910511
:101C200088F4853A910508F086C08130910509F461
:101C300089C0009709F486C0049708F083C0D0E0FB
:101C4000C0E080C08F3B9105D0F7C85AD0E0CC0FE0
:101C5000DD1FC757DE4F0990D881C02DD46472C0F4
:101C6000811540E2940750F4C11581E0D80708F0CF
:101C700069C0CD3ED10518F3D06564C0811590448C
:101C8000F0F2DF70D06A5EC0811535E5930718F574
:101C9000811544E5940708F085C0C11583E5D80790
:101CA00008F06CC0C11522E5D20708F462C0CE016D
:101CB0008370992721E030E002C0220F331F8A95FC
:101CC000E2F7C695C69580E2C89FE0011124C22BB9
:101CD000D32BDC6837C0811539E59307A8F481154B
:101CE00048E5940708F063C0C11586E5D80708F0F9
:101CF000A6CF8C2F0E94AB0FC82FD0E0DC2FCC27B3
:101D0000CC27DF71D0621EC081152AE5920708F446
:101D100053C090568115904208F091CF8D2F8F714E
:101D20000E94AB0F90E0982F882788279F719C0115
:101D30002C2BE901E7CFC55AD0E0C954DE4FC8814A
:101D4000D0E0D064CE01DF91CF91089583709927C0
:101D500021E030E002C0220F331F8A95E2F7C695DA
:101D6000C69540E2C49FE0011124C22BD32BDD684D
:101D7000E9CFDC2FCC27C16FD06AE4CFCE018370CE
:101D8000992721E030E002C0220F331F8A95E2F745
:101D9000C695C69540E2C49FE0011124C22BD32B07
:101DA000DA68D0CFD82FCC27C46FD06ACBCFD82F4A
:101DB000CC27C06FD06AC6CF8F700E94AB0F34E0C3
:101DC000D695C7953A95E1F7CF709C2FEC01D06975
:101DD000B9CF972F7830A8F4653098F470E025E0FB
:101DE000929F600D711D1124FB0198E2899FE00D07
:101DF000F11D1124EE0FFF1FE455FF4F85919491C3
:101E0000089580E090E008950E94E90E0E94F80D88
:101E1000089582389105B9F1B0F48133910509F440
:101E20007DC048F48932910509F46DC08A3291056C
:101E300009F47BC008958533910509F45FC08933A7
:101E4000910509F10895833E9105D9F138F4803E5A
:101E5000910529F1823E910579F10895863E91051B
:101E6000D9F1873E910509F43EC0843E910541F5C4
:101E70002091880221FF24C08091870284FD19C02F
:101E800087EE90E0089520918702237009F05AC0F0
:101E90002091880223FF14C089E290E008952091E8
:101EA000870220FD38C03091880230FF09C024FF2E
:101EB00043C090E080E008952091870222FDF7CF93
:101EC00008952091870222FD3AC03091880230FDAA
:101ED00039C024FFF5CFEDCF2091870223FFF0CF4B
:101EE00024FDE7CFCDCF2091870223FD2EC0309176
:101EF000880231FFEECF84EE90E0089520918702B2
:101F000025FFDECFC9CF2091870225FD21C020917A
:101F1000880223FFD5CF89E390E0D2CF20918702BA
:101F200026FFCECF8AE290E008952091870226FF17
:101F3000C7CF81E390E0089583EE90E0089582EEAC
:101F400090E0089580EE90E0089586EE90E0089588
:101F500085E390E008959091870292FF06C0282FB4
:101F600028712830F9F4877F846093FF06C0282FFA
:101F700028712831F1F4877E84612091880220FF46
:101F800006C0382F38713830D9F4877F816021FF3F
:101F900006C0282F28712831D1F4877E816194FDF5
:101FA000877E0895282F24712430F9F68B7F88606E
:101FB000DCCF282F2471243101F78B7E8861DDCF9F
:101FC000382F3171313019F78E7F8860E0CF282F9C
:101FD0002171213121F78E7E8861E1CF1092830239
:101FE0001092840210928502109286020895CF9278
:101FF000DF92EF92FF926B017C010E941812811117
:102000000EC00E94DF1DC61AD70AE80AF90AC0925C
:102010008302D0928402E0928502F0928602FF90C1
:10202000EF90DF90CF9008950F931F930E941812A6
:10203000882329F00E94DF1D1F910F9108950E94AF
:10204000DF1D00918302109184022091850230915E
:102050008602600F711F821F931FEECF80E00895EC
:102060000E946C0C0895CF930E9499118FE39CE914
:102070000197F1F700C000000E9499110E9415120B
:10208000C4E08111C0E08C2F0E947D1090E002C05E
:1020900095958795CA95E2F780FF04C00E9430109D
:1020A0000E943A1ECF9108950E94331008950E9415
:1020B000730C811102C00E941C0D0E947E0C809343
:1020C0003A020E94880C90938802809387020E94B3
:1020D00054100E94830C90E00E945B078091D8010D
:1020E0009091D9010E947C07089508950E9475106F
:1020F000089508950E9479100895E82FF0E0EE56B3
:10210000FD4F80810895089508950E9484100895D8
:10211000EF92FF921F93CF93DF9300D000D0CDB703
:10212000DEB70E941812182F60919A02882309F4D2
:1021300047C019821A821B821C82862F90E09E0162
:102140002F5F3F4F7901B9018E569D4F0E944E126D
:102150008823E9F08091890290E044E050E0B701E3
:102160008E569D4F0E948A2521E020933B02892BA9
:10217000C9F410E00E940B03812F0F900F900F9075
:102180000F90DF91CF911F91FF90EF900895809174
:102190003B02882371F384E0F70111928A95E9F7F5
:1021A00010923B02E0918902F0E0EE56FD4F8981EA
:1021B0009A81AB81BC8180839183A283B383DACF80
:1021C00070E06E567D4F8091890290E08E569D4F53
:1021D0000E94D5120E948510CFCF1F93CF93DF931B
:1021E00022E031E0C1E0D0E0D90150E040E08D9143
:1021F0008F3F91F0E82FE295EF70F0E011A18F7022
:10220000BE0101C0660F8A95EAF7962F909591233B
:1022100091A382A1862B82A34F5F5F4F453051056A
:1022200031F72B5F3F4F81E026313807E9F6DF9128
:10223000CF911F910895CF93DF93AC01A62FB0E00B
:1022400085E0689FF0011124EE5FFE4F75E081E0AC
:1022500060E091919F3F81F0C92FC295CF70D0E08F
:1022600028A130E09F7002C0359527959A95E2F736
:10227000982F20FD90E0692B880F715051F7A40F23
:10228000B51F6C93DF91CF910895A4E1B0E0EBE42A
:10229000F1E10C944F2580911601811126C084E153
:1022A000E4E4F1E0DE01119601900D928A95E1F7E8
:1022B000FE013196A2E0B1E0CE01459620812C933B
:1022C000218111962C931197228112962C931297AB
:1022D000238113962C931397248114962C9314978F
:1022E000359615968E179F0749F78091160194E051
:1022F000811190E090939A0284E0891B8093890277
:102300000E94ED1088E0E2E9F2E0DF01982F1D92D3
:102310009A95E9F7EAE8F2E0DF011D928A95E9F77C
:1023200084E00E94D7110E9408036496E2E00C94B6
:102330006B25A8E0B0E0EFE9F1E10C944C258E01AB
:102340000F5F1F4F88E0F80111928A95E9F7F12C91
:102350006F2DC8010E941B11F394F4E0FF12F8CF17
:1023600048E050E0B8018AE892E00E948A2521E026
:10237000009709F420E0892B41F088E0F801AAE8F1
:10238000B2E001900D928A95E1F760919A0270E0B7
:102390006E567D4F44E08AE892E00E94D811182FD3
:1023A0000E948810812B2896E5E00C9468250895FA
:1023B000CF92DF92EF92FF920F931F93CF936C0116
:1023C0007B01042F222349F081E080933E020E948A
:1023D000D31D90933D0280933C02C0913E02C111F7
:1023E0000AC0C0E08C2FCF911F910F91FF90EF900A
:1023F000DF90CF90089580913C0290913D020E9421
:10240000EB1D059770F310E0A801B601C7010E940B
:102410008A25892B41F0A801B601C7010E949725A2
:1024200010923E02DFCFC0E0FBCF0E941F0D089547
:1024300080914102811107C00E941825882351F024
:1024400081E08093410281E090914102913009F056
:1024500080E0089582E0809341020E941325F3CF2B
:102460000E94730C811102C00E941C0D0E94151263
:10247000809316010E94181281110E9484120895FF
:102480000E941812811102C00E948712089581E0F3
:10249000909142029A3008F080E008950F931F93C4
:1024A000CF93DF93EC018B01809142028A30B8F424
:1024B000B801CE010E94D212C82F811122C0809192
:1024C00042028F3FB9F40E94D31D90934002809343
:1024D0003F028C2FDF91CF911F910F910895809132
:1024E0003F02909140020E94EB1D843F914000F713
:1024F000C0E0EFCF8F5F809342028A3020F7C1E0C7
:10250000E8CF10924202E5CF0E94071B08950E9477
:102510000A1B0895B0E0A0E0E0E9F2E10C944A253E
:102520007901C82F880FDD0B41155105A9F0FE0177
:1025300093E0EE0FFF1F9A95E1F7E95EFE4F818170
:1025400092818D5B9D4F208130E04217530708F444
:102550009A01A9010E949725CE010E94F31BD82E53
:102560008823D1F001151105B9F083E0CC0FDD1FF0
:102570008A95E1F7FE01E95EFE4F438150E00417C2
:10258000150708F4A801C95EDE4F6C817D816D5B83
:102590007D4FC7010E9497258D2DCDB7DEB7E7E0AF
:1025A0000C9466250E94CC1308950E94E3130895AD
:1025B000A4E0B0E0EEEDF2E10C944D2560915802FC
:1025C0007091590280915A0290915B020E94FA1D0B
:1025D00011E0643671058105910518F10E9414100F
:1025E0006E5F7F4F8F4F9F4F69837A838B839C836E
:1025F00010E000E030E020E044E050E0BE016F5F1A
:102600007F4F82E00E948A12182F882351F00E9487
:10261000DF1D609358027093590280935A02909381
:102620005B02812F2496E4E00C946925B0E0A0E0E1
:10263000ECE1F3E10C9447257C015B016A010E9407
:10264000471201E010E0882311F00AE010E0C1E039
:10265000D0E0B501C701F6010995811104C02196AA
:102660000C171D072CF4CDB7DEB7EAE00C946325F8
:10267000CC9F9001CD9F300D300D112490E080E073
:1026800045E34A95F1F70000019682179307C1F7D9
:10269000E0CFA5E0B0E0EFE4F3E10C9447255B0167
:1026A000E090BA01F090BB0101E010E09E012B5FC9
:1026B0003F4F50E040E070E060E080E00E948A120E
:1026C000182F882309F44BC067018FEFC81AD80A66
:1026D0006091540270915502809156029091570278
:1026E0000E94FA1D643671058105910580F104E0B0
:1026F00010E09E012F5F3F4F50E040E070E060E04F
:1027000081E00E948A12F82E64E070E0C6010E9407
:10271000B91611E09D81981310E01F2159F10E9414
:10272000DF1D60935402709355028093560290937C
:10273000570289819A81AB81BC818093500290932A
:102740005102A0935202B093530211E013C064E00F
:1027500070E0C6010E94B9169D818913C8CFF701A8
:1027600081819281A381B48189839A83AB83BC8365
:102770001111DFCF8091500290915102A09152022D
:10278000B0915302F50180839183A283B383812F9B
:102790002596EAE00C9463250F931F93CF93DF9364
:1027A000EC018B0149E453E10E941613882331F0B8
:1027B00048ED52E1B801CE010E941613DF91CF918E
:1027C0001F910F9108950F931F93CF93DF93C091A3
:1027D000BA01D091BB01CE01019624E0FB01DC01DE
:1027E00001900D922A95E1F764E070E00E94B9161D
:1027F00088836D817E818F81988500914C02109134
:102800004D0220914E0230914F02601771078207EE
:10281000930751F060934C0270934D0280934E02E7
:1028200090934F020E94F70FDF91CF911F910F916C
:1028300008950E94EE1F0E94650D0E94FB1F0895DF
:102840000E9400200E94760D0E941A2008950E9486
:102850006C1D0E94D41F0E944B0D0E9419140E94EF
:1028600020140E94590DFBCF8091620280FF0DC0A1
:102870006091340170E0660F771F6038710570F564
:102880006115710569F1862F089581FF07C0609178
:10289000340184E0689FB0011124EFCF60913401CE
:1028A00082FD0AC0809161028823A9F02091330142
:1028B00060913401821710F088E0ECCF869FC00150
:1028C000112433E0880F991F3A95E1F7622F70E0E9
:1028D0000E942525D2CF68E070E0D5CF8FE708951C
:1028E00081E008958091620280FF0CC06091300108
:1028F00070E075956795759567956115710549F156
:10290000862F089581FF06C06091300170E07595B3
:102910006795F3CF6091300182FD0BC0909160020A
:102920009923A1F060912F0180913001961738F022
:10293000682F70E06038710500F38FE70895899F74
:10294000C001112470E00E942525F4CF61E070E001
:10295000D7CF81E008958D3E31F40E9434148195E3
:102960008093660208958E3E19F40E943414F8CFC5
:102970008F3E31F40E94341481958093650208954E
:10298000803F19F40E943414F8CF893F29F40E9443
:1029900072148093670208958A3F21F40E94721492
:1029A0008195F7CF8B3F31F40E947214819580930B
:1029B000680208958C3F19F40E947214F8CF9FE0CA
:1029C000980F983070F4815F990B21E030E001C0DE
:1029D000220F8A95EAF780916402822B8093640229
:1029E00008958D3F31F4809162028160809362028C
:1029F00008958E3F21F4809162028260F7CF8F3F6D
:102A0000B9F7809162028460F1CF409165028D3EFA
:102A100059F48091660287FF0DC010926602411141
:102A20000BC01092610208C08E3E81F48091660254
:102A300018169CF3442381F08091670290916802FC
:102A4000892B09F05AC01092600208958F3E49F414
:102A500047FFF0CF10926502809166028111ECCFA2
:102A6000E0CF803F19F41416ACF3E4CF90916702E5
:102A7000893F29F41916F4F610926702DBCF8A3FDA
:102A800019F497FFD7CFF8CF909168028B3F29F4C4
:102A900097FFD0CF10926802CDCF8C3F19F4191652
:102AA000CCF3C8CF9FE0980F983090F4815F990BDA
:102AB00021E030E0B90102C0660F771F8A95E2F786
:102AC000CB01809590916402892380936402B2CFF8
:102AD0008D3F31F4809162028E7F80936202AACF93
:102AE0008E3F21F4809162028D7FF7CF8F3F09F0F6
:102AF000A1CF809162028B7FF0CF08950E94D31DF9
:102B00009C019091650280916602982B21F0309390
:102B10005F0220935E029091670280916802982B79
:102B200021F030935D0220935C0283E692E00E94E4
:102B3000951C089586E0E3E6F2E0DF011D928A9598
:102B4000E9F71092610210926002109262020895F9
:102B5000FC01828181110EC0838181110BC08481AF
:102B6000811108C091E08581811101C090E0892F19
:102B70008170089581E0FCCFA6E0B0E0E2ECF5E1E1
:102B80000C944E2586E0E3E6F2E0DE01119601901A
:102B90000D928A95E1F710926502109266021092EA
:102BA0006702109268028B819C81892B89F0809149
:102BB0005E0290915F020E94EB1DAC019091610258
:102BC0009923C9F1809135018417150608F440C096
:102BD0008D819E81892B91F080915C0290915D02A4
:102BE0000E94EB1DAC0190916002992309F471C021
:102BF000809131018417150608F479C0BE016F5F1A
:102C00007F4F83E692E00E94241D811105C083E678
:102C100092E00E94A81581110E947E1586E0FE01B7
:102C20003196A3E6B2E001900D928A95E1F72696DF
:102C3000E3E00C946A25209136018AE0289F9001F8
:102C400011242417350720F69F5F9093610202C07C
:102C50009F3FD1F71B81112359F00E9434149FEF3D
:102C600011160CF491E0899F802D11248093650248
:102C70001C81112359F00E9434149FEF11160CF49B
:102C800091E0899F802D1124809366023091650226
:102C9000332309F49DCF20916602222309F498CFB3
:102CA00045EB3403C0011124992359F09093650238
:102CB00045EB240390011124332339F0309366024D
:102CC00087CF81E080936502F3CF81E08093660235
:102CD0007FCF209132018AE0289F90011124241790
:102CE000350708F08BCF9F5F9093600202C09F3F33
:102CF000D1F71D81112359F00E9472149FEF111614
:102D00000CF491E0899F802D1124809367021E812D
:102D1000112359F00E9472149FEF11160CF491E0E8
:102D2000899F802D1124809368023091670233239C
:102D300009F464CF20916802222309F45FCF45EBA8
:102D40003403C0011124992359F09093670245EB95
:102D5000240390011124332339F0309368024ECFBD
:102D600081E080936702F3CF81E08093680246CFD1
:102D70000895FC01680F791F8FEF91E3E617F707BD
:102D800009F408952191822728E030E087FF06C0EA
:102D9000880F892721503109C9F7F0CF880FFACF62
:102DA000CF93DF93EC0197FF0CC0FB018281882356
:102DB00041F00E941117CE019F770E94A1170E9437
:102DC000701781E0DF91CF91089590919C0292302D
:102DD00071F48A3050F490E009966AE070E00E9445
:102DE0002525875A0E94910408958650FBCF0E94A2
:102DF000C21908958CE090E00E94A02590E0B0E018
:102E0000A0E080939C0290939D02A0939E02B093B9
:102E10009F02089560919C028CE090E00E94AE2594
:102E200008950E94871C869581708093A1020E945C
:102E3000871C817080939B0280919C02813039F4C1
:102E40008091A102882319F089E30E9491040E94D5
:102E5000820B8093A0020E94950B0E94A50B80918B
:102E60009C02823021F158F48823C1F08130D1F0E6
:102E70008FE39CE90197F1F700C0000008958430CA
:102E800051F18530A9F78BE191E00E94AF0285E214
:102E900090E00E94AF0288E290E006C082EE0E94BD
:102EA000FB03E6CF88E193E00E94AF02E1CF80917F
:102EB0009B02811103C083E50E94910482EE0E946F
:102EC000FB038FE39CE90197F1F700C0000087E561
:102ED0000E949104CDCF86EE0E94910488E1F8CF44
:102EE00080919C02823011F148F4882381F0813076
:102EF00091F08091A0020E94920B08958430F9F025
:102F00008530B9F788E290E00E94AF02F2CF82EEFE
:102F10000E944704EECF8CE20E9491048091A102AE
:102F2000882339F389E30E949104E3CF82EE0E9463
:102F3000470480919B028111DCCF83E5F4CF88E2C6
:102F4000F2CF0F931F93CF93DF938C01CCE0D0E0AF
:102F5000C8010C2E02C0969587950A94E2F78F70EF
:102F60000E94E5162497CC3F8FEFD80789F7DF91B1
:102F7000CF911F910F9108950F931F93CF93DF93DC
:102F8000EC018B01FB018281882381F00E94820B7E
:102F9000C43EFCE5DF0729F190F4C23EECE5DE0714
:102FA000D9F081E0C33EFCE5DF0799F0B801CE011E
:102FB0000E94D016DF91CF911F910F910895C63EC8
:102FC0008CE5D80791F078F085E0C13BFDE5DF079F
:102FD00069F780939C0202C010929C020E940A171B
:102FE000E5CF82E0F6CF83E0F4CF84E0F2CFCF9359
:102FF000DF93EC01FB018281882309F464C1C430B2
:10300000FDE5DF07E0F5CB3F9CE5D90730F49E01F5
:1030100022503C4524313105D8F50E94880C90930C
:10302000880280938702C231ECE5DE0709F41FC1F4
:1030300008F06EC0C9308CE5D80709F4F2C008F07A
:103040003FC0C530ECE5DE0709F4DBC058F5C330FE
:103050008CE5D80709F4CDC008F0CFC08091870275
:103060008160C230DC4509F4AEC080918702909146
:1030700088020E94960C0E94060780E009C0C63AAA
:10308000EDE5DE0751F238F4C2369DE5D90729F2A5
:10309000DF91CF9108959E012E5A3D452330310591
:1030A000B8F7BBCF809187028062C730FCE5DF07AD
:1030B00009F489C008F4B1C080918702806483C09C
:1030C000CD309CE5D90709F4BAC070F4809187022D
:1030D0008E7FCB30FCE5DF0709F475C008F4A7C08C
:1030E000809187028D7F6FC0CF309CE5D90709F4AE
:1030F000B6C008F4A8C0C031FCE5DF0709F4B3C0CE
:10310000C131DC4509F0B1CF809187028F7B5BC074
:10311000C1159DE5D90709F4B4C098F5CB3FFCE58E
:10312000DF0709F472C0B8F4C4319CE5D90709F48B
:10313000B6C008F4A2C0C531DC4509F096CF809135
:10314000870282FB992790F921E0922790FB82F970
:1031500090FB83F938C0CD3F8CE5D80709F477C0E0
:1031600008F457C0CE3FECE5DE0709F474C0809147
:1031700088028360CF3FDC4509F077CF80938802D7
:1031800074CFC2368DE5D80709F496C068F4C23012
:10319000EDE5DE0709F48CC008F477C0C330DD45E7
:1031A00009F063CF80E085C0CE3A9DE5D907E9F00C
:1031B00068F490918702892F8E7F90FF8160C63AD4
:1031C000DD4509F052CF809387024FCFCF3A8DE58E
:1031D000D80789F1C03BDD4509F047CF90918802BF
:1031E000892F877F93FF8860C9CF8091880288608C
:1031F000C5CF809187028260E6CF8091870284608C
:10320000E2CF809187028860DECF80918802816062
:10321000B5CF809188028260B1CF809187028061B2
:10322000D2CF0E940607809187028068CCCF809120
:1032300087028C60C8CF80918802877F9FCF809162
:1032400087028B7FC0CF80918702877FBCCF809120
:1032500088028E7F93CF809188028D7F8FCF80915F
:1032600087028F7EB0CF809187028F7DACCF0E9486
:103270000607809187028F77A6CF80918702837F90
:10328000A2CF809188028C7F79CF80918802982F7D
:10329000909591708E7F892B90FB81F96FCF0E9462
:1032A000060790918702892F97FB87F980588BCF6B
:1032B00081E00E94290DD9CE90918702892F8F7EBF
:1032C00094FF806180CF81E0E3CEB0E0A0E0EBE648
:1032D000F9E10C944A25E82FF0E0E45CFD4FD4902E
:1032E000282F26952695269530E0F901E452FD4FCA
:1032F0000491877010E0082E02C0159507950A9476
:10330000E2F701701127F901E453FD4FE490F12C2D
:10331000082E02C0F594E7940A94E2F791E0E922BE
:10332000FF24F901E454FD4FC491D0E002C0D595CB
:10333000C7958A95E2F7C170DD270115110519F0CF
:1033400081EE0E94FB03E114F10419F086EE0E9465
:10335000FB038D2D0E949104E114F10419F086EE17
:103360000E9447040115110519F081EE0E944704DF
:10337000CD2B19F08CE20E949104CDB7DEB7E7E0C7
:103380000C946625982F9F709A50963020F0805D9F
:103390000E9465190895895AFBCFCF93DF93EB0103
:1033A00086319C4511F50E94820B9A81992399F0F0
:1033B0008A7A91E009F490E090936902811109C042
:1033C00089E20E945A0B0E94C60B80E0DF91CF91E8
:1033D000089585E3F6CF80916902811104C089E2E6
:1033E0000E94620BF0CF85E3FBCF81E0EFCF0F931C
:1033F0001F93CF93DF93C42FD22FFC0182818823A8
:10340000C9F040936C020E94D31D90936B0280938D
:103410006A0280E28C0F883040F4C77081E001C0FE
:10342000880FCA95EAF70E949A04DF91CF911F9105
:103430000F91089510916C02141332C080916A02AA
:1034400090916B020E94EB1D883C910548F5C0E20B
:10345000CD0F1D17B9F080E2810F883040F417704E
:1034600081E001C0880F1A95EAF70E94A104C830D4
:1034700048F481E09D2F977001C0880F9A95EAF774
:103480000E949A04802F0E949104C83070F6D77071
:1034900081E001C0880FDA95EAF70E94A104C5CF48
:1034A00080E28C0F883008F6C77081E001C0880F79
:1034B000CA95EAF7F2CF0F939C01CB01243F4CE56C
:1034C000340759F1A8F4293DFCE53F0701F12A3DF5
:1034D0004CE53407D1F1283D3C4591F406E221EE5C
:1034E00041EE68ED7CE50E94F71980E00F910895A8
:1034F000263FFCE53F07E9F0B0F0273F3C45F9F0F7
:10350000FC018281882339F110926C02EFCF07E22F
:1035100025EE45EE69ED7CE5E6CF06E221EE40EED4
:1035200064EF7CE5E0CF07E225EE44EE65EF7CE555
:10353000DACF06E221EE42EE66EF7CE5D4CF07E279
:1035400025EE46EE67EF7CE5CECF08E221E045EEC2
:103550006AED7CE5C8CF81E0C9CF8EE14A9B02C00D
:103560008150E1F74A9BFECF08955A9880E28A95F0
:10357000F1F75A9A0895FC013BE03A95F1F798E08B
:1035800020E080E031E040E14A95F1F7880F4A9B66
:1035900002C08160232742E04A95F1F7000040E134
:1035A0004A95F1F7915079F790E19A95F1F799B131
:1035B00032E03A95F1F7000040E14A95F1F792FBCD
:1035C000992790F992272081920F90830895A1E086
:1035D000B0E0EDEEFAE10C944B2519828C017C01F0
:1035E000E60EF11C0E151F0541F481E09981911141
:1035F00080E02196E6E00C9467250E94AD1ACE018A
:1036000001960E94BB1AF80181938F01EBCF529A69
:103610005A9A089552985A9AEA9AE9E6F0E0808117
:103620008F7C808308956150770B91E001C0990FE2
:103630006A95EAF720E031E0911108C0222391F069
:103640005A9A80E28A95F1F75A980895492F4823AB
:1036500039F05A9A232740E24A95F1F79695ECCF34
:103660005A98F9CF5A98EDCFFF920F931F93CF93AB
:10367000DF93EC018C01060F111DC017D10729F44F
:10368000CDB7DEB7E5E00C946825F9900E94B51A35
:1036900068E08F2D0E94131BF0CF1F920F920FB680
:1036A0000F9211240F931F932F933F934F935F9388
:1036B0006F937F938F939F93AF93BF93EF93FF93FA
:1036C000CF93DF930F92CDB7DEB719820E94AD1A68
:1036D000CE0101960E94BB1A082F06950695069505
:1036E000282F22952570902F9570290F922F937077
:1036F00026952695920F982797708981982B09F027
:103700005CC0043008F059C080E18A95F1F75A9AFC
:10371000529A82E08A95F1F700C05A9888E0089F93
:1037200080011124D801A95EBE4F1696ED91FC913F
:1037300017973097A9F06091BA017091BB01149668
:103740002D913C911597260F371F11968D919C91C5
:103750001297680F791F13964C9113978C910995C6
:10376000F801E95EFE4F6381662351F02091BA01B2
:103770003091BB0184819581820F931F0E94341B7D
:103780000E94B51A80E18A95F1F75A9852985A9A90
:1037900080E18A95F1F7F801E95EFE4F60816623CA
:1037A00051F02091BA013091BB0181819281820F49
:1037B000931F0E94E71A0E94AD1A0F90DF91CF91DC
:1037C000FF91EF91BF91AF919F918F917F916F91F9
:1037D0005F914F913F912F911F910F910F900FBECD
:1037E0000F901F9018950F931F93CF93DF93EC01C9
:1037F00004970CF04CC0F894529A5A9885E08A9538
:10380000F1F700009C2F969595708C2F8570980F7E
:10381000892F83709695969523E0CC0FDD1F2A950E
:10382000E1F7980F8E01092B0E94B51A00C068E0DD
:10383000802F0E94131B80E18A95F1F752985A9AC3
:103840004A9B1EC087E090E04A991CC0FE01E95ED9
:10385000FE4F63816623F9F02091BA013091BB01DC
:1038600084819581820F931F0E94E71A811113C0F2
:10387000529A5A9A7894DF91CF911F910F9108959F
:1038800000C0DECF019729F4529A5A9A789480E0CA
:10389000F2CF00C0D9CF0E94AD1A80E28A95F1F72D
:1038A0005A98529A80E18A95F1F7C95EDE4F688195
:1038B000662351F02091BA013091BB0189819A8130
:1038C000820F931F0E94341B0E94B51A789481E0E6
:1038D000D2CF9093BD018093BC0108959093730261
:1038E0008093720208950E941812811103C0809182
:1038F0006D020895E0917202F0917302309729F001
:103900000190F081E02D0995089580E008950E94CE
:10391000731C0895E0917202F0917302309721F0C8
:103920000280F381E02D09950895E0917202F091F3
:103930007302309739F022E0DC012C930480F5818A
:10394000E02D099508952091700230917102281799
:10395000390771F09093710280937002E0917202C6
:10396000F0917302309721F00680F781E02D0995E0
:10397000089520916E0230916F022817390771F077
:1039800090936F0280936E02E0917202F091730245
:10399000309721F00084F185E02D099508959C0170
:1039A0002E5F3F4FAC01485F5F4F80E02417350723
:1039B00009F40895F90191919F019923B9F38F5F5B
:1039C000F5CF662349F0FC0132960896219126171F
:1039D00029F0E817F907D1F780E0089581E008950C
:1039E0009C01FC0132969FEF80E04191461751F017
:1039F0009F3F19F4411101C0982F8F5F8630A9F7BE
:103A00009F3F09F40895290F311D97FD3A95F9015B
:103A100062830895FC01329608962191261303C013
:103A2000DF0111971C92E817F907B9F708950E9472
:103A3000F01C08950E940A1D0895029626E0FC01DC
:103A400011922A95E9F7089546E050E00E948A25F0
:103A500021E0892B09F420E0822F089508950E9427
:103A60002E1D0895811106C081E0809374020E948A
:103A70002F1D089582E0F9CF83E0809374020E94A5
:103A80002F1D08950E94321D089581E080937402D5
:103A90000E942F1D08950E94451D089508950895C0
:103AA0000E944F1D0895089508950E944E1D089587
:103AB000CF930E94531D0E9499110E94541DC0E093
:103AC0008C2F0E947D10811105C0CF5FC830C1F7D7
:103AD000CF91089581E0FCCF85B7806885BF85B719
:103AE000806885BF08951F921FB61F9211248F937F
:103AF0009F93AF93BF9380917502811113C0809102
:103B0000A2029091A302A091A402B091A5024196B5
:103B1000A11DB11D8093A2029093A302A093A402C1
:103B2000B093A502BF91AF919F918F911F901FBE3F
:103B30001F9018958091AA02843031F10E94810370
:103B40001092750288E190E020E40FB6F894A895F1
:103B5000809360000FBE2093600083B7817F8460F4
:103B600083BF83B7816083BF7894889583B78E7F46
:103B700083BF0FB6F894A895809160008861809308
:103B80006000109260000FBE08950E9406070E9418
:103B90008603089582E084BD93E095BD9AEF97BDBA
:103BA00080936E0008952FB7F8948091A2029091AF
:103BB000A302A091A402B091A5022FBF08952FB730
:103BC000F8946091A2027091A3028091A402909156
:103BD000A5022FBF08959C014FB7F8948091A202CF
:103BE0009091A302A091A402B091A5024FBF821BA5
:103BF000930B0895CF92DF92EF92FF922FB7F89434
:103C0000C090A202D090A302E090A402F090A5027E
:103C10002FBFA7019601261B370B480B590BCA0172
:103C2000B901FF90EF90DF90CF90089578941F92A4
:103C30001FB61F9211248F939F93AF93BF938091D0
:103C4000A2029091A302A091A402B091A5020196B4
:103C5000A11DB11D8093A2029093A302A093A40280
:103C6000B093A502BF91AF919F918F911F901FBEFE
:103C70001F90189587E797E79093010880930008B5
:103C800088E19AE00FB6F894A895809360000FBE83
:103C900090936000FFCF88E19AE00FB6F894A89562
:103CA000809360000FBE90936000FFCF80918102EF
:103CB000089508959C0182E08093E9009FEF809130
:103CC000E800915085FD06C085ED8A95F1F700006A
:103CD0009111F5CF8091E80085FF0CC050E040E0E5
:103CE00066E070E0C9010E948C208091E8008E7728
:103CF0008093E8000895CF93DF93EC0181E08093F7
:103D0000E9008FEF9091E800815095FD06C095ED98
:103D10009A95F1F700008111F5CF8091E80085FFB9
:103D200014C050E040E068E070E0CE010E948C20BA
:103D30008091E8008E778093E80088E0FE01A9E793
:103D4000B2E001900D928A95E1F7DF91CF9108954D
:103D50008093760270937802609377028091AA0232
:103D6000843001F582E08093E9008FEF9091E800C4
:103D7000815095FD06C095ED9A95F1F700008111EF
:103D8000F5CF8091E80085FF0DC050E040E063E092
:103D900070E086E792E00E948C208091E8008E77A8
:103DA0008093E8000895BC0184E00E94A81E089555
:103DB000BC0183E00E94A81E08958091A902811190
:103DC00009C00E941C220E9479228091E200846036
:103DD0008093E20008951092A90208950E94451D63
:103DE00008956091A60281E0611101C080E00E9407
:103DF0003C1D08959091AA0281E0943009F080E082
:103E00006091A6020E94421D089542E061EC81E0AB
:103E10000E94982142E261EC82E00E9498219091F8
:103E2000AA0281E0943009F080E06091A6020E942D
:103E3000321D08958091AC02833009F461C030F4E2
:103E40008130D1F1823009F49EC008958A3009F49E
:103E50008AC08B3009F46FC0893009F050C080915E
:103E6000AB02813209F04BC08091AF029091B00259
:103E7000029708F044C08091E800877F8093E800B3
:103E80008091E80082FF37C09091F3008091F200AA
:103E9000029731F48091F100813011F0863021F4E5
:103EA0008091F100809381028091E8008B7780936C
:103EB000E8000E94CC2123C08091AB02813AF9F442
:103EC0008091E800877F8093E8008091AF02909115
:103ED000B002892B61F468E089E792E070E00E940B
:103EE000DB208091E8008B778093E800089560E004
:103EF00090E080E0F3CF8091AA028111C1CF0895B4
:103F00008091AB02813AD9F78091AF029091B002D3
:103F1000892BA9F78091E800877F8093E800809142
:103F2000E80080FFFCCF809143018093F1008091F5
:103F3000E8008E77BCCF8091AB02813201F780918F
:103F4000AF029091B002892BD1F68091E800877F73
:103F50008093E8000E94CC218091AD0280934301C0
:103F60000E94060708958091AB02813241F680914C
:103F7000E800877F8093E8000E94CC218091AE0208
:103F80008093820208958091AB02813A09F0B7CF05
:103F90008091E800877F8093E8008091E80080FFAF
:103FA000FCCF80918202C1CF84B7877F84BF0FB6D8
:103FB000F894A895809160008861809360001092C9
:103FC00060000FBE80E890E00FB6F8948093610027
:103FD000909361000FBE0E944B1D08950E941C2209
:103FE0000E947922E2EEF0E0808184608083789400
:103FF0000E94F824089587E391E00E946E1C0895C2
:104000008091AA02853031F48091AA02853019F09E
:104010000E94C51D08950E949A1D8091A8028823C0
:1040200099F30E94581D882379F30E9476200E94FC
:104030000607EACF08950E941E200895292F3327EE
:104040002330310519F168F42130310509F444C0F9
:104050002230310509F445C090E080E030E020E0F6
:1040600025C02132310549F122323105A9F780E41A
:1040700090E02EED33E061157105C1F08BE790E023
:1040800023E633E06130710589F0E6CF992781306E
:10409000910581F0009729F00297F1F6ECEEF2E03D
:1040A00002C0E2E1F3E0849190E09F01FA013183E4
:1040B00020830895E8E0F3E0F6CF89E090E028E27D
:1040C00033E06115710591F389E090E021E433E07C
:1040D0006130710559F3C0CF82E190E021E533E012
:1040E000E5CF8BE390E026E133E0E0CF80E189BDCE
:1040F00082E189BD09B400FEFDCF8091D8008F7D9B
:104100008093D8008091E00082608093E0008091ED
:10411000E00081FDFCCF0895AF92BF92CF92DF9275
:10412000FF920F931F93CF93DF936C01EB018A01F2
:104130000E94EB21F82E811123C00115110539F0E1
:10414000F80180819181C81BD90BC80ED91EB12CF2
:10415000A12C2097A9F08091E80085FD22C08091D4
:10416000E8008E778093E80001151105A1F0F801B1
:1041700080819181A80EB91EB182A08285E0F82EBF
:104180008F2DDF91CF911F910F91FF90DF90CF90F6
:10419000BF90AF9008950E94EB218823D1F2F82EB2
:1041A000EFCFF60181916F018093F1002197FFEF2E
:1041B000AF1ABF0ACECFFC018091B1029091B2023A
:1041C00086179707A0F06115710529F49091E80012
:1041D0009E779093E80090E06115710551F491117C
:1041E00008C08091E80082FF34C080E00895BC01DF
:1041F000F2CF8091AA028823C1F18530C1F180916C
:10420000E80083FD30C08091E80082FDEACF809114
:10421000E80080FFE1CF8091F3002091F200382F79
:104220006115710519F02830310558F091E02830FA
:10423000310509F090E02091E8002E772093E80006
:10424000CBCF81918093F100615071092F5F3F4F77
:10425000E7CF8091AA02882341F0853041F0809118
:10426000E80083FFBECF81E0089582E0089583E0F7
:104270000895FC018091B1029091B20286179707D0
:10428000A0F06115710529F48091E8008E77809384
:10429000E80090E06115710551F4911108C080911A
:1042A000E80082FF35C080E00895BC01F2CF809124
:1042B000AA028823C9F18530C9F18091E80083FD05
:1042C00031C08091E80082FDEACF8091E80080FF54
:1042D000E1CF8091F3002091F200382F6115710534
:1042E00019F02830310558F091E02830310509F0F7
:1042F00090E08091E8008E778093E800CBCF8491A6
:104300008093F1003196615071092F5F3F4FE6CFE6
:104310008091AA02882341F0853041F08091E80025
:1043200083FFBDCF81E0089582E0089583E0089582
:10433000982F973028F08F708093E90081E00895DE
:104340009093E900242F762F50E0981731F0709168
:10435000EC002091ED005091F00021FD02C09F5F24
:10436000E8CF3091EB003E7F3093EB003091ED00D1
:104370003D7F3093ED003091EB0031603093EB00E6
:104380007093EC002093ED005093F0002091EE002C
:1043900027FDE5CF80E008958091AB0287FF13C031
:1043A0008091E80082FF06C08091E8008B778093BF
:1043B000E80004C08091AA028111F2CF0895809193
:1043C000AA028823D9F38091E80080FFF8CF80917A
:1043D000E8008E77ECCF2091E4003091E50095E67F
:1043E000A9012091EC00822F817020FF06C08091EE
:1043F000E80080FF06C080E008952091E80022FDDB
:104400001AC08091AA02882389F0853089F08091B2
:10441000EB0085FD0FC02091E4003091E5004217CC
:104420005307F9F29150E1F684E0089582E008958F
:1044300083E0089581E008950E948B220E949322D8
:10444000E0EEF0E0808181608083E8EDF0E0808143
:104450008F77808319BCA7EDB0E08C918E7F8C9311
:1044600080818F7E80831092A90208950F931F93FD
:10447000CF93DF930E948B220E949322C8EDD0E05D
:1044800088818F77888388818068888388818F7D01
:10449000888319BC1092AA021092A6021092A80258
:1044A0001092A70200EE10E0F80180818B7F8083DC
:1044B00088818160888342E060E080E00E949821EA
:1044C000E1EEF0E080818E7F8083E2EEF0E080819B
:1044D00081608083808188608083F80180818E7F05
:1044E0008083888180618883DF91CF911F910F91B4
:1044F0000895E8EDF0E080818F7E8083E7EDF0E0C5
:1045000080818160808384E082BF81E08093A90202
:104510000E9436220895E8EDF0E080818E7F80834E
:104520001092E20008951092DA001092E1000895CE
:104530001F920F920FB60F9211242F933F934F9318
:104540005F936F937F938F939F93AF93BF93EF93FB
:10455000FF938091E10082FF0BC08091E20082FF17
:1045600007C08091E1008B7F8093E1000E94F724D7
:104570008091DA0080FF19C08091D80080FF15C0BB
:104580008091DA008E7F8093DA008091D90080FFDD
:1045900096C080E189BD82E189BD09B400FEFDCFEE
:1045A00081E08093AA020E94DD1E8091E10080FFDD
:1045B00019C08091E20080FF15C08091E2008E7FDB
:1045C0008093E2008091E20080618093E20080911C
:1045D000D80080628093D80019BC85E08093AA023D
:1045E0000E94F11E8091E10084FF2BC08091E200C7
:1045F00084FF27C080E189BD82E189BD89B5982FFC
:10460000917080FFFBCF8091D8008F7D8093D80080
:104610008091E1008F7E8093E1008091E2008F7EA7
:104620008093E2008091E20081608093E2008091BB
:10463000A602882309F449C084E08093AA020E945C
:10464000FA1E8091E10083FF29C08091E20083FF80
:1046500025C08091E100877F8093E10082E0809314
:10466000AA021092A6028091E1008E7F8093E10061
:104670008091E2008E7F8093E2008091E200806171
:104680008093E20042E060E080E00E949821809107
:10469000F00088608093F0000E94EE1EFF91EF9181
:1046A000BF91AF919F918F917F916F915F914F914A
:1046B0003F912F910F900FBE0F901F90189519BC2E
:1046C0001092AA020E94EB1E70CF8091E30087FD3A
:1046D00093E09093AA02B3CF1F920F920FB60F925E
:1046E00011242F933F934F935F936F937F938F93F7
:1046F0009F93AF93BF93CF93DF93EF93FF93D091AB
:10470000E900DF708091EC00C82FC17080FDC0E827
:104710001092E9008091F000877F8093F0007894F8
:104720000E94B0231092E9008091F000886080938D
:10473000F000CD2BCF70C093E900FF91EF91DF9196
:10474000CF91BF91AF919F918F917F916F915F9129
:104750004F913F912F910F900FBE0F901F90189582
:10476000AAE2B0E0E6EBF3E20C944E258BEA92E08D
:104770002091F100FC012193CF01F2E0833B9F07E0
:10478000B9F70E941A1F8091E80083FF1EC1809133
:10479000AB029091AC029A3008F017C1E92FF0E01B
:1047A000E051FA4D0C943925803899F0823809F09F
:1047B0000CC18091AF028F70873008F006C18093E2
:1047C000E9008091EB0085FB882780F91092E900D1
:1047D00006C08091A7029091A802911182609091E9
:1047E000E800977F9093E8008093F1001092F10029
:1047F0008091E8008E77E5C0882309F4D3C0823029
:1048000009F0E3C08091AD028111D6C08091AF0262
:104810008F702FEF280F263008F0D7C08093E90063
:104820002091EB0020FFC8C0933031F48091EB0061
:1048300080628093EB00C0C09091EB0090619093F8
:10484000EB0021E030E001C0220F8A95EAF72093C7
:10485000EA001092EA008091EB008860EACF8111B3
:10486000B4C01091AD021F778091E3008078812B56
:104870008093E3008091E800877F8093E8000E94A6
:10488000CC218091E80080FFFCCF8091E30080681C
:104890008093E30082E0111183E08093AA0295C027
:1048A0008058823008F091C08091AD029091AE02A4
:1048B0008C3D23E09207A1F583E08A838AE2898315
:1048C0004FB7F894DE01139620E03EE051E2E32F6B
:1048D000F0E050935700E49120FF03C0E295EF70A1
:1048E0003F5FEF708E2F90E0EA30C0F0C7968D9357
:1048F0009D932F5F243159F74FBF8091E800877F48
:104900008093E8006AE270E0CE0101960E94DB200D
:104910008091E8008B778093E80057C0C096E7CF7E
:104920006091AF027091B002AE014F5F5F4F0E9485
:104930001B20BC01892B09F448C09091E800977FA7
:104940009093E80089819A810E943921E1CF8038D3
:10495000E1F58091E800877F8093E8008091A602CE
:104960008093F10045CF811130C09091AD0292301B
:1049700060F58091E800877F8093E8009093A6021D
:104980000E94CC218091A602882311F084E005C00A
:104990008091E30087FDFACF81E08093AA020E9414
:1049A000051F13C08091AD02813079F481E093300E
:1049B00009F080E08093A8021092E9008091E8005D
:1049C000877F8093E8000E94CC218091E80083FFDC
:1049D0000AC08091E800877F8093E8008091EB0017
:1049E00080628093EB00AA96E3E00C946A25089518
:1049F000CF938091AA028823A1F0C091E900CF70E3
:104A00009091EC00892F817090FD80E8C82B109266
:104A1000E9008091E80083FD0E94B023CF70C0932D
:104A2000E900CF9108950E941C221092AA020895D5
:104A3000E8EDF0E08081806180838AE18A95F1F77A
:104A400000C08091D9008170089597FB072E16F45D
:104A5000009407D077FD09D00E94762507FC05D089
:104A60003EF4909581959F4F0895709561957F4F85
:104A70000895EE0FFF1F0590F491E02D09942F92F9
:104A80003F924F925F926F927F928F929F92AF92DE
:104A9000BF92CF92DF92EF92FF920F931F93CF932B
:104AA000DF93CDB7DEB7CA1BDB0B0FB6F894DEBFC2
:104AB0000FBECDBF09942A88398848885F846E84E8
:104AC0007D848C849B84AA84B984C884DF80EE8032
:104AD000FD800C811B81AA81B981CE0FD11D0FB63B
:104AE000F894DEBF0FBECDBFED010895AA1BBB1B1E
:104AF00051E107C0AA1FBB1FA617B70710F0A61BDE
:104B0000B70B881F991F5A95A9F780959095BC01FE
:104B1000CD010895FB01DC0104C08D910190801945
:104B200021F441505040C8F7881B990B0895FB01B0
:104B3000DC0102C001900D9241505040D8F7089519
:104B4000F999FECF92BD81BDF89A992780B5089555
:104B5000A8E1B0E042E050E00C94D425262FF9996A
:104B6000FECF92BD81BDF89A019700B4021639F0CC
:104B70001FBA20BD0FB6F894FA9AF99A0FBE08959D
:104B80000396272F0E94AF250E94AE25252F0E9455
:104B9000AF25242F0C94AF250196272F0E94AF2517
:104BA0000C94AE25DC01CB01FC01F999FECF06C0C7
:104BB000F2BDE1BDF89A319600B40D9241505040DB
:104BC000B8F70895F894FFCFE304E304140514053F
:104BD000A105BD0543054305C80539064806480635
:104BE000D423FC23E524FC23E5242F245024E524AE
:044BF000A724B3241F
:104BF4001E02C6F7F6F5F43133323693919094667B
:104C0400973435FFFFFF01000000010000000000A1
:104C1400000004010000000405000000000000285A
:104C24000850011E0A1401561E7B1E5A1ED81ED39C
:104C34001E591E01F4F5F6F7C693363233319766E2
:104C44009490913534FFFFFFE200E900EA00B500DB
:104C5400B600B700CD008301CC008A019201940113
:104C64002102230224022502260227022A02B3007B
:104C7400B4006F007000818283E200E900EA00B5AD
:104C840000B600B700CD008301CC008A01920194E4
:104C9400012102230224022502260227022A02B34A
:0C4CA40000B4006F0070008182834302A6
:00000001FF
